:100000000C9463000C948B000C948B000C948B006C
:100010000C948B000C948B000C948B000C948B0034
:100020000C948B000C948B000C948B000C948B0024
:100030000C948B000C948B000C948B000C948B0014
:100040000C94B0020C948B000C9420030C94FA02D4
:100050000C948B000C948B000C948B000C948B00F4
:100060000C948B000C948B000000000024002700EF
:100070002A0000000000250028002B0000000000DE
:1000800023002600290004040404040404040202DA
:100090000202020203030303030301020408102007
:1000A0004080010204081020010204081020000012
:1000B0000008000201000003040700000000000027
:1000C0000000CC03CA0A11241FBECFEFD8E0DEBF68
:1000D000CDBF11E0A0E0B1E0EAE8F0E202C0059097
:1000E0000D92A83AB107D9F723E0A8EAB1E001C020
:1000F0001D92A439B207E1F710E0C2E6D0E004C0D7
:100100002197FE010E94260DC136D107C9F70E9432
:1001100071050C9438100C940000833081F028F4A1
:10012000813099F08230A9F008958730A9F08830A5
:10013000C9F08430B1F4809180008F7D03C080913C
:1001400080008F7780938000089584B58F7784BD79
:10015000089584B58F7DFBCF8091B0008F77809319
:10016000B00008958091B0008F7DF9CFCF93DF93D9
:10017000282F30E0F901E255FF4F8491F901E6564E
:10018000FF4FD491F901EA57FF4FC491CC23A1F05E
:1001900081110E948D00EC2FF0E0EE0FFF1FE4585C
:1001A000FF4FA591B491EC91ED2381E090E009F42B
:1001B00080E0DF91CF91089580E090E0FACF8091C8
:1001C000A3022091A402811108C08091AB020E9479
:1001D000B60021E0892B09F420E08091A6022223B9
:1001E00039F081110AC081E08093A602822F089520
:1001F0008823E1F31092A602F9CF20E0F7CF809197
:10020000A3022091A202811108C08091AA020E943B
:10021000B60021E0892B09F420E08091A502222379
:1002200039F081110AC081E08093A502822F0895E0
:100230008823E1F31092A502F9CF20E0F7CF1F93B6
:10024000CF93DF93282F30E0F901E255FF4F8491DF
:10025000F901E656FF4FD491F901EA57FF4FC491D7
:10026000CC23A9F0162F81110E948D00EC2FF0E015
:10027000EE0FFF1FEE58FF4FA591B4918FB7F89482
:10028000EC91111108C0D095DE23DC938FBFDF9174
:10029000CF911F910895DE2BF8CF8E3008F08E504D
:1002A0008770806480937C0080917A008064809362
:1002B0007A0080917A0086FDFCCF80917800909141
:1002C00079000895AF92BF92CF92DF92EF92FF92A2
:1002D0000F931F93CF93DF936C017B018B01040F6E
:1002E000151FEB015E01AE18BF08C017D10759F00A
:1002F0006991D601ED91FC910190F081E02DC6014C
:100300000995892B79F7C501DF91CF911F910F9145
:10031000FF90EF90DF90CF90BF90AF900895FC01D9
:10032000538D448D252F30E0842F90E0821B930B5A
:10033000541710F0CF96089501970895FC01918D00
:10034000828D981761F0A28DAE0FBF2FB11D5D9603
:100350008C91928D9F5F9F73928F90E008958FEFA5
:100360009FEF0895FC01918D828D981731F0828D59
:10037000E80FF11D858D90E008958FEF9FEF0895B0
:10038000FC01918D228D892F90E0805C9F4F821B14
:1003900091098F739927089586EB91E00E94C0011F
:1003A00021E0892B09F420E0822F089580E090E07D
:1003B000892B29F00E94CC0181110C940000089532
:1003C000FC01A48DA80FB92FB11DA35ABF4F2C91CA
:1003D000848D90E001968F739927848FA689B789C1
:1003E0002C93A089B1898C91837080648C93938DB8
:1003F000848D981306C00288F389E02D80818F7D5B
:1004000080830895EF92FF920F931F93CF93DF9312
:10041000EC0181E0888F9B8D8C8D98131AC0E88940
:10042000F989808185FF15C09FB7F894EE89FF890F
:100430006083E889F98980818370806480839FBFAD
:1004400081E090E0DF91CF911F910F91FF90EF90AD
:100450000895F62E0B8D10E00F5F1F4F0F731127BD
:10046000E02E8C8D8E110CC00FB607FCFACFE889F8
:10047000F989808185FFF5CFCE010E94E001F1CF9F
:10048000EB8DEC0FFD2FF11DE35AFF4FF0829FB76C
:10049000F8940B8FEA89FB8980818062CFCFCF935C
:1004A000DF93EC01888D8823B9F0AA89BB89E8899C
:1004B000F9898C9185FD03C0808186FD0DC00FB642
:1004C00007FCF7CF8C9185FFF2CF808185FFEDCFC0
:1004D000CE010E94E001E9CFDF91CF910895FC01A8
:1004E00080819181009711F00C94E20E0895DF92C3
:1004F000EF92FF920F931F93CF93DF9300D000D022
:10050000CDB7DEB7092E000CAA0BBB0B8F5F9F4740
:10051000AF4FBF4F89839A83AB83BC83CE010196D3
:100520007C0110E000E0F701D1907F01C8010E943A
:10053000820CD81621F06D2DC8010E948A0C0F5F25
:100540001F4F0430110579F70F900F900F900F9007
:10055000DF91CF911F910F91FF90EF90DF90089561
:100560001F920F920FB60F9211242F933F938F93E8
:100570009F93AF93BF938091B2019091B301A091EB
:10058000B401B091B5013091B10123E0230F2D37B3
:1005900058F50196A11DB11D2093B1018093B201C0
:1005A0009093B301A093B401B093B5018091AD01D4
:1005B0009091AE01A091AF01B091B0010196A11D43
:1005C000B11D8093AD019093AE01A093AF01B093A4
:1005D000B001BF91AF919F918F913F912F910F905B
:1005E0000FBE0F901F90189526E8230F0296A11DAD
:1005F000B11DD2CF1F920F920FB60F9211242F93DD
:100600003F934F935F936F937F938F939F93AF939A
:10061000BF93EF93FF9386EB91E00E94E001FF917F
:10062000EF91BF91AF919F918F917F916F915F916A
:100630004F913F912F910F900FBE0F901F901895E3
:100640001F920F920FB60F9211242F938F939F93A7
:10065000EF93FF93E091C601F091C7018081E09193
:10066000CC01F091CD0182FD1BC090818091CF0122
:100670008F5F8F732091D001821741F0E091CF01FD
:10068000F0E0EA54FE4F958F8093CF01FF91EF91F8
:100690009F918F912F910F900FBE0F901F901895E3
:1006A0008081F4CFCF93DF9390E0FC01E656FF4FBB
:1006B00024918A579F4FFC0184918823D1F090E0C8
:1006C000880F991FFC01E859FF4FA591B491FC01D7
:1006D000EE58FF4FC591D49161110EC09FB7F894A9
:1006E0008C91E22FE0958E238C932881E223E8837E
:1006F0009FBFDF91CF9108958FB7F894EC91E22BD3
:10070000EC938FBFF6CFEF92FF920F931F93CF938F
:10071000DF93EC017B01198218821B821A821D82F1
:100720001C82FB0101900020E9F731978F01061B25
:10073000170BB8016F5F7F4F90E080E00E946B0F56
:100740000097B9F0998388831B830A832C813D81AC
:10075000232B11F4FC0110821D830C83B7018881C7
:100760009981DF91CF911F910F91FF90EF900C94A1
:10077000311088819981009711F00E94E20E198250
:1007800018821D821C821B821A82DF91CF911F91D9
:100790000F91FF90EF900895CF93DF93E6EBF1E098
:1007A0001382128288EE93E0A0E0B0E08483958308
:1007B000A683B7838AE091E09183808385EC90E003
:1007C0009587848784EC90E09787868780EC90E01B
:1007D000918B808B81EC90E0938B828B82EC90E00C
:1007E000958B848B86EC90E0978B868B118E128E86
:1007F000138E148EC0EAD2E081E08F838FEF93E0F6
:100800009D878C8780E091E09F878E8784EB90E0C6
:10081000998B888B63E671E082EB92E00E94830300
:1008200068E171E088EB92E00E9483036AE171E085
:100830008EEB92E00E9483036CE171E084EC92E025
:100840000E94830364E271E08AEC92E00E948303D9
:1008500062E271E080ED92E00E9483036AE271E05F
:1008600086ED92E00E9483036CE271E08CED92E0F1
:100870000E94830363E371E082EE92E00E948303AF
:100880006AE371E088EE92E00E9483036CE371E01A
:100890008EEE92E00E9483036EE371E084EF92E0BB
:1008A0000E94830368E471E08AEF92E00E94830370
:1008B00062E571E080E093E00E94830364E571E00B
:1008C00086E093E00E94830366E571E08CE093E0AC
:1008D0000E9483036CE571E082E193E00E94830350
:1008E00062E671E088E193E00E94830364E671E0D0
:1008F0008EE193E00E94830366E671E084E293E078
:100900000E9483036BE671E08AE293E00E94830316
:1009100061E371E080E393E00E94830368E371E0A8
:1009200086E393E00E94830360E771E08CE393E049
:100930000E94830365E771E082E493E00E948303F1
:100940006AE771E088E493E00E9483036CE771E05A
:100950008EE493E00E9483036EE771E084E593E008
:100960000E94830362E871E08AE593E00E948303BA
:1009700066E871E080E693E00E94830368E871E036
:1009800086E693E00E9483036AE871E08CE693E0D8
:100990000E9483036FE871E082E793E00E94830383
:1009A00064E971E088E793E00E94830366E971E0FF
:1009B0008EE793E00E94830368E971E084E893E0A6
:1009C0000E94830360EA71E08AE893E00E94830357
:1009D0008FE088878CE089878BE08A878AE08B8725
:1009E00060E08FE00E94520360E089850E9452031C
:1009F00060E08A850E94520360E08B850E9452036A
:100A0000E5E9F2E0128211828FE790E09683858318
:100A10008EE0808380E094E09483838380E090E0A4
:100A2000A0E0B0E487839087A187B28760E08EE082
:100A30000E945203C3E8D2E086E0888385E0898380
:100A400084E08A8389E08B8361E086E00E94520320
:100A500061E089810E94520361E08A810E94520311
:100A600061E08B810E945203E3E5F2E01082118283
:100A700012821382148215821682178210861186C2
:100A8000128613861486158616861786108A118A92
:100A9000128A138A148A158A168A178A108E118E62
:100AA000128E138E84E690E0958F848F8DEC9CECF3
:100AB000ACECBDE3868F978FA0A3B1A312A213A2C3
:100AC00015A214A28FEF90E097A386A310A611A6FB
:100AD00012A613A614A615A616A617A6DF91CF91E7
:100AE0000895CF93DF9300D000D000D01F92CDB7F0
:100AF000DEB7789484B5826084BD84B5816084BD9E
:100B000085B5826085BD85B5816085BD80916E00AB
:100B1000816080936E0010928100809181008260DC
:100B20008093810080918100816080938100809119
:100B300080008160809380008091B1008460809308
:100B4000B1008091B00081608093B00080917A0004
:100B5000846080937A0080917A00826080937A002A
:100B600080917A00816080937A0080917A00806819
:100B700080937A001092C100E091C601F091C70104
:100B800082E08083E091C201F091C3011082E09184
:100B9000C401F091C50183E180831092CE01E09100
:100BA000CA01F091CB0186E08083E091C801F09109
:100BB000C901808180618083E091C801F091C90101
:100BC000808188608083E091C801F091C9018081B3
:100BD00080688083E091C801F091C90180818F7D98
:100BE000808390E080E00E94820C898381E090E025
:100BF0000E94820C8A8389819A81815090489093C7
:100C00009702809396021092A90182EA8093800055
:100C100089E18093810081E0809387008FEF80934A
:100C200086008FE692E1A3E8BAE380937102909385
:100C30007202A0937302B093740281E090E09093EB
:100C4000700280936F0204E1202E312C8091A30268
:100C5000882351F08091A702882309F437C460915A
:100C6000B0027091B1023AC08091A9020E94B60010
:100C7000892B09F42BC48091A3028111F0CF0FE7D7
:100C800010E0C12CD12C76018091A8020E944D0168
:100C900027E631E0DC010E941F0D2FEF33E040E03A
:100CA00050E00E94980CCA01B9016F5F7F4F8F4FCF
:100CB0009F4F0E94650B9B01AC01C701B6010E94CA
:100CC0002D0D6B017C0101501109F1F620E030E09F
:100CD0004EEF52E40E94990D0E940B0E072E000C5D
:100CE000880B990B0E94650B60935302709354021A
:100CF000809355029093560210E000E0C12CD12C55
:100D0000760160919A0270919B020617170744F5CD
:100D10008090980290909902092C000CAA08BB08B8
:100D2000809195020E944D0127E631E0DC010E948E
:100D30001F0DA50194010E94980CCA01B9016F5FB3
:100D40007F4F8F4F9F4F0E94650B9B01AC01C701E6
:100D5000B6010E942D0D6B017C010F5F1F4FD1CF9B
:100D6000072E000C880B990B0E94650B9B01AC01B0
:100D7000C701B6010E94990D6B017C01609196023A
:100D800070919702072E000C880B990B0E94650B3F
:100D90009B01AC01C701B6010E942D0D0E940B0EF4
:100DA0009B01693641E074070CF4F3C128563140C9
:100DB000B901330F880B990B0E94650B60935702A2
:100DC000709358028093590290935A0261E0809187
:100DD00083020E941F018090530290905402A090C1
:100DE0005502B0905602C0905702D0905802E09041
:100DF0005902F0905A02A7019601C501B4010E9460
:100E0000410E18160CF0DFC180E090E0A0E0BFE3D7
:100E10008093630290936402A0936502B09366028C
:100E2000A7019601C501B4010E942C0D20E030E01D
:100E300040E050E40E945E0B18160CF4B1C180E053
:100E400090E0A0E8BFE380935F0290936002A093DC
:100E50006102B09362023092780220927702ACE293
:100E6000B1E0B0937A02A093790261E080918402AC
:100E70000E941F0160E0809185020E941F01109274
:100E800076028FB7F8944091B2015091B30160910E
:100E9000B4017091B5018FBF80917F029091800263
:100EA000A0918102B0918202481B590B6A0B7B0B07
:100EB00080916F0290917002B0E0A0E0481759074E
:100EC0006A077B0708F43AC12FB7F8948091B20102
:100ED0009091B301A091B401B091B5012FBF80935F
:100EE0007F0290938002A0938102B093820280904F
:100EF000570290905802A0905902B0905A02A50152
:100F00009401609153027091540280915502909126
:100F100056020E942C0D6B017C01A5019401609189
:100F20007B0270917C0280917D0290917E020E94F2
:100F30002C0D6B837C838D839E8380927B029092A9
:100F40007C02A0927D02B0927E028091760288237C
:100F500069F0F7FAF094F7F8F0948B819C81AD81F9
:100F6000BE81B0588B839C83AD83BE831091750284
:100F7000412C512C320111110EC020915F02309191
:100F800060024091610250916202C701B6010E9465
:100F9000C40B2B013C018090710290907202A090D2
:100FA0007302B09074022091670230916802409100
:100FB000690250916A026B817C818D819E810E94C1
:100FC000C40BA50194010E94990DA30192010E94F6
:100FD0002D0D2B013C012091630230916402409160
:100FE000650250916602C701B6010E94C40BA501BB
:100FF00094010E94C40B20916B0230916C024091CD
:101000006D0250916E020E942D0D6B017C01C09209
:101010006B02D0926C02E0926D02F0926E0211238C
:10102000D1F020915F0230916002409161025091B5
:1010300062026B817C818D819E810E94C40BA7011D
:1010400096010E942D0D60936B0270936C02809349
:101050006D0290936E0290916B029B83A0916C0243
:10106000AF8300916D0210916E02609177027091D2
:101070007802072E000C880B990B0E94650B6B0100
:101080007C019B01AC016B817F81C8010E945E0BDA
:101090004601570187FD18C06091790270917A026C
:1010A000072E000C880B990B0E94650B4B015C010D
:1010B0009B01AC016B817F81C8010E94410E181613
:1010C0001CF08B809F805801C401D50180936B0276
:1010D00090936C02A0936D02B0936E029401A501EF
:1010E000C301B2010E942D0D5B018C019B01AC017B
:1010F000B601C7010E94410E1816B4F06091790242
:1011000070917A02072E000C880B990B0E94650BD8
:101110006B017C019B01AC01B501C8010E94410E2D
:10112000181614F065017801C601D70180935B029F
:1011300090935C02A0935D02B0935E0260915B02AB
:1011400070915C0280915D0290915E020E94120E8D
:101150009B0180918602F894863009F424C108F03E
:10116000A4C0833009F4CCC0853009F4F7C078946A
:101170000E94FF000E94DF0080E090E0892B09F4CC
:1011800065CD0E94CC01882309F45DCD0E9400004A
:101190005ACD161617060CF40BCE28593E4F08CE22
:1011A00086E696E6A6EEBFE380935F029093600228
:1011B000A0936102B093620230927802209277028B
:1011C000AFEFB1E04ECEA7019601C501B4010E9478
:1011D0005E0B87FF51C080E090E0A0E0BFE380930A
:1011E000630290936402A0936502B0936602A50126
:1011F0009401C701B6010E942C0D20E030E040E0D0
:1012000050E40E945E0B181624F180E090E0A0E804
:10121000BFE380935F0290936002A0936102B0935A
:1012200062023092780220927702ACE2B1E0B09391
:101230007A02A093790260E0809184020E941F01EB
:1012400061E0809185020E941F0181E08093760217
:1012500018CE86E696E6A6EEBFE380935F029093F3
:101260006002A0936102B0936202309278022092F1
:101270007702AFEFB1E0DBCF10925F021092600215
:101280001092610210926202109263021092640244
:101290001092650210926602109278021092770204
:1012A00010927A0210927902ECCD8A3009F4B2C021
:1012B0008B3009F4EDC0893009F059CF8091A90134
:1012C000882399F09091860080918700A82FB0E044
:1012D000BA2FAA27A90FB11D9B010E941F0D2FEF46
:1012E00030E040E050E00E94980C2115310509F0F3
:1012F00074C0809180008F7780938000299837CFC9
:101300008091AC01882361F02091B30030E0DB01D3
:101310000E94100D2FEF30E040E050E00E94980C4A
:101320002115310539F48091B0008F7D8093B00094
:101330005B981DCF8091B3008217130639F480911A
:10134000B0008F7D8093B0005B9A11CF8091B00088
:1013500080628093B0002093B40009CF8091AB01EC
:10136000882359F027B530E0DB010E94100D2FEFE4
:1013700030E040E050E00E94980C2115310529F43E
:1013800084B58F7D84BD5D98F2CE87B58217130634
:1013900029F484B58F7D84BD5D9AE9CE84B58062E1
:1013A00084BD28BDE4CE8091AA01882399F084B53C
:1013B0002115310521F48F7D84BD5E98D8CE2F3F55
:1013C000310521F48F7D84BD5E9AD1CE806284BDCB
:1013D00067BDCDCE84B58068FACF409186008091FC
:1013E000870090E0982F8827840F911D28173907D0
:1013F00039F4809180008F7780938000299AB7CE4E
:1014000080918000806880938000309389002093D1
:101410008800ADCE8091A901882399F09091860033
:1014200080918700A82FB0E0BA2FAA27A90FB11D7D
:101430009B010E941F0D2FEF30E040E050E00E9422
:10144000980C2115310539F4809180008F7D8093AF
:1014500080002A988CCE409186008091870090E091
:10146000982F8827840F911D2817390739F4809108
:1014700080008F7D809380002A9A79CE80918000B1
:1014800080628093800030938B0020938A006FCE1F
:101490008091A801882391F08091B0002115310539
:1014A00029F48F778093B0002B9861CE2F3F3105C0
:1014B00039F48F778093B0002B9A59CE8091B00089
:1014C00080688093B0006093B30051CE60E080915B
:1014D00083020E941F010E94FF00882309F44CC070
:1014E00010E000E0C12CD12C760160919A0270913D
:1014F0009B020617170744F5809098029090990276
:10150000092C000CAA08BB08809195020E944D018D
:1015100027E631E0DC010E941F0DA50194010E9425
:10152000980CCA01B9016F5F7F4F8F4F9F4F0E9488
:10153000650B9B01AC01C701B6010E942D0D6B012B
:101540007C010F5F1F4FD1CF072E000C880B990B2A
:101550000E94650B9B01AC01C701B6010E94990D69
:101560000E940B0E84EB90E0861B970B90939702E2
:10157000809396020E9477020E94DF00882309F47C
:10158000F7CD90E080E00E947702109297021092CF
:101590009602EECD8AE893E00E946F0284E893E021
:1015A0000E946F028EE793E00E946F0288E793E04B
:1015B0000E946F0282E793E00E946F028CE693E044
:1015C0000E946F0286E693E00E946F0280E693E03D
:1015D0000E946F028AE593E00E946F0284E593E027
:1015E0000E946F028EE493E00E946F0288E493E011
:1015F0000E946F0282E493E00E946F028CE393E00A
:101600000E946F0286E393E00E946F0280E393E002
:101610000E946F028AE293E00E946F0284E293E0EC
:101620000E946F028EE193E00E946F0288E193E0D6
:101630000E946F0282E193E00E946F028CE093E0CF
:101640000E946F0286E093E00E946F0280E093E0C8
:101650000E946F028AEF92E00E946F0284EF92E094
:101660000E946F028EEE92E00E946F0288EE92E07E
:101670000E946F0282EE92E00E946F028CED92E077
:101680000E946F0286ED92E00E946F0280ED92E070
:101690000E946F028AEC92E00E946F0284EC92E05A
:1016A0000E946F028EEB92E00E946F0288EB92E044
:1016B0000E946F0282EB92E00C946F020E94A00BDA
:1016C00008F481E00895E89409C097FB3EF49095F2
:1016D0008095709561957F4F8F4F9F4F9923A9F00B
:1016E000F92F96E9BB279395F6958795779567959A
:1016F000B795F111F8CFFAF4BB0F11F460FF1BC0DE
:101700006F5F7F4F8F4F9F4F16C0882311F096E970
:1017100011C0772321F09EE8872F762F05C066231E
:1017200071F096E8862F70E060E02AF09A95660FD7
:10173000771F881FDAF7880F9695879597F9089590
:10174000990F0008550FAA0BE0E8FEEF16161706D2
:10175000E807F907C0F012161306E407F50798F03A
:10176000621B730B840B950B39F40A2661F0232B53
:10177000242B252B21F408950A2609F4A140A695CF
:101780008FEF811D811D08950E94D70B0C94480C8A
:101790000E943A0C38F00E94410C20F0952311F081
:1017A0000C94310C0C94370C11240C947C0C0E947A
:1017B000590C70F3959FC1F3950F50E0551F629F30
:1017C000F001729FBB27F00DB11D639FAA27F00D9A
:1017D000B11DAA1F649F6627B00DA11D661F829FC1
:1017E0002227B00DA11D621F739FB00DA11D621FA6
:1017F000839FA00D611D221F749F3327A00D611DC3
:10180000231F849F600D211D822F762F6A2F1124A4
:101810009F5750409AF0F1F088234AF0EE0FFF1FD7
:10182000BB1F661F771F881F91505040A9F79E3F2E
:10183000510580F00C94310C0C947C0C5F3FE4F368
:10184000983ED4F3869577956795B795F795E79584
:101850009F5FC1F7FE2B880F911D9695879597F98D
:10186000089597F99F6780E870E060E008959FEF22
:1018700080EC089500240A94161617061806090627
:10188000089500240A9412161306140605060895F6
:10189000092E0394000C11F4882352F0BB0F40F47E
:1018A000BF2B11F460FF04C06F5F7F4F8F4F9F4FBE
:1018B000089557FD9058440F551F59F05F3F71F040
:1018C0004795880F97FB991F61F09F3F79F08795A7
:1018D0000895121613061406551FF2CF4695F1DF30
:1018E00008C0161617061806991FF1CF86957105C0
:1018F000610508940895E894BB2766277727CB01F4
:1019000097F90895F999FECF92BD81BDF89A99276C
:1019100080B50895262FF999FECF1FBA92BD81BDDB
:1019200020BD0FB6F894FA9AF99A0FBE0196089561
:10193000052E97FB1EF400940E94AF0C57FD07D0B4
:101940000E94EE0C07FC03D04EF40C94AF0C5095A3
:101950004095309521953F4F4F4F5F4F089590959B
:101960008095709561957F4F8F4F9F4F08952F926F
:101970003F924F925F926F927F928F929F92AF921F
:10198000BF92CF92DF92EF92FF920F931F93CF936C
:10199000DF93CDB7DEB7CA1BDB0B0FB6F894DEBF03
:1019A0000FBECDBF09942A88398848885F846E8429
:1019B0007D848C849B84AA84B984C884DF80EE8073
:1019C000FD800C811B81AA81B981CE0FD11D0FB67C
:1019D000F894DEBF0FBECDBFED010895A1E21A2E2F
:1019E000AA1BBB1BFD010DC0AA1FBB1FEE1FFF1FC3
:1019F000A217B307E407F50720F0A21BB30BE40B13
:101A0000F50B661F771F881F991F1A9469F7609559
:101A10007095809590959B01AC01BD01CF01089513
:101A2000A29FB001B39FC001A39F700D811D11241F
:101A3000911DB29F700D811D1124911D08950E946A
:101A4000100DB7FF0895821B930B0895EE0FFF1F33
:101A50000590F491E02D09945058BB27AA270E94C5
:101A6000440D0C94480C0E943A0C38F00E94410C32
:101A700020F039F49F3F19F426F40C94370C0EF43F
:101A8000E095E7FB0C94310CE92F0E94590C58F3B8
:101A9000BA17620773078407950720F079F4A6F553
:101AA0000C947B0C0EF4E0950B2EBA2FA02D0B019D
:101AB000B90190010C01CA01A0011124FF27591B93
:101AC00099F0593F50F4503E68F11A16F040A22F99
:101AD000232F342F4427585FF3CF4695379527950A
:101AE000A795F0405395C9F77EF41F16BA0B620B09
:101AF000730B840BBAF09150A1F0FF0FBB1F661F50
:101B0000771F881FC2F70EC0BA0F621F731F841F92
:101B100048F4879577956795B795F7959E3F08F0B8
:101B2000B0CF9395880F08F09927EE0F979587957A
:101B300008950E94AD0D0C94480C0E94410C58F081
:101B40000E943A0C40F029F45F3F29F00C94310CCC
:101B500051110C947C0C0C94370C0E94590C68F3B6
:101B60009923B1F3552391F3951B550BBB27AA2756
:101B700062177307840738F09F5F5F4F220F331F90
:101B8000441FAA1FA9F335D00E2E3AF0E0E832D058
:101B900091505040E695001CCAF72BD0FE2F29D05B
:101BA000660F771F881FBB1F261737074807AB072D
:101BB000B0E809F0BB0B802DBF01FF2793585F4FA2
:101BC0003AF09E3F510578F00C94310C0C947C0C4B
:101BD0005F3FE4F3983ED4F3869577956795B79584
:101BE000F7959F5FC9F7880F911D9695879597F98F
:101BF0000895E1E0660F771F881FBB1F6217730708
:101C00008407BA0720F0621B730B840BBA0BEE1F1C
:101C100088F7E09508950E94120E6894B1110C9413
:101C20007C0C08950E94610C88F09F5798F0B92FA2
:101C30009927B751B0F0E1F0660F771F881F991F01
:101C40001AF0BA95C9F714C0B13091F00E947B0C1C
:101C5000B1E008950C947B0C672F782F8827B85F2C
:101C600039F0B93FCCF3869577956795B395D9F759
:101C70003EF490958095709561957F4F8F4F9F4F63
:101C800008950E94A00B08F48FEF08950F931F93FF
:101C9000CF93DF938230910510F482E090E0E091E1
:101CA0009203F091930330E020E0B0E0A0E03097A1
:101CB00099F42115310509F44AC0281B390B243049
:101CC0003105D8F58A819B816115710589F1FB0188
:101CD00093838283FE0111C040815181028113816F
:101CE00048175907E0F04817590799F4109761F021
:101CF00012960C93129713961C933296CF01DF9194
:101D0000CF911F910F910895009392031093930325
:101D1000F4CF2115310551F04217530738F0A901CE
:101D2000DB019A01BD01DF01F801C1CFEF01F9CF5D
:101D30009093930380939203CDCFFE01E20FF31FA4
:101D4000819391932250310939832883D7CF2091F1
:101D5000900330919103232B41F4209102013091A3
:101D6000030130939103209390032091000130915F
:101D700001012115310541F42DB73EB74091040111
:101D800050910501241B350BE0919003F0919103D4
:101D9000E217F307A0F42E1B3F0B2817390778F042
:101DA000AC014E5F5F4F2417350748F04E0F5F1FA1
:101DB0005093910340939003819391939FCFF0E0D0
:101DC000E0E09CCFCF93DF930097E9F0FC013297DE
:101DD00013821282A0919203B0919303ED0130E03F
:101DE00020E01097A1F420813181820F931F209170
:101DF0009003309191032817390709F061C0F093DF
:101E00009103E0939003DF91CF910895EA01CE17FB
:101E1000DF07E8F54A815B819E0141155105B1F765
:101E2000E901FB83EA8349915991C40FD51FEC174F
:101E3000FD0761F4808191810296840F951FE9016D
:101E400099838883828193819B838A83F0E0E0E099
:101E500012968D919C9113970097B9F52D913C9115
:101E60001197CD010296820F931F2091900330911C
:101E700091032817390739F6309751F510929303DB
:101E800010929203B0939103A0939003BCCFD3839D
:101E9000C28340815181840F951FC817D90761F40F
:101EA0004E5F5F4F88819981480F591F518340834E
:101EB0008A819B81938382832115310509F0B0CFFC
:101EC000F0939303E09392039ECFFD01DC01C0CF1A
:101ED00013821282D7CFB0E0A0E0E1E7FFE00C94DC
:101EE000B90C8C01009751F4CB010E94460E8C0175
:101EF000C801CDB7DEB7E0E10C94D50CFC01E60FCC
:101F0000F71F9C0122503109E217F30708F49DC026
:101F1000D901CD91DC911197C617D70798F0C5303C
:101F2000D10530F3CE0104978617970708F3C61B37
:101F3000D70B2297C193D1936D937C93CF010E94CD
:101F4000E20ED6CF5B01AC1ABD0A4C018C0E9D1E71
:101F5000A0919203B0919303512C412CF12CE12CD0
:101F6000109731F580919003909191038815990510
:101F700009F05CC04616570608F058C08091000171
:101F800090910101009741F48DB79EB740910401F3
:101F900050910501841B950BE817F90708F055C00F
:101FA000F0939103E0939003F90171836083A0CFD4
:101FB0008D919C91119712966C90129713967C902C
:101FC0001397A815B90559F56C0142E0C40ED11C50
:101FD000CA14DB0420F1AC014A195B09DA0112963C
:101FE000159780F06282738251834083D9016D938B
:101FF0007C93E114F10471F0D7011396FC93EE93F6
:10200000129776CF22968C0F9D1FF90191838083C2
:10201000F301EFCFF0939303E093920369CF481657
:10202000590608F42C017D01D3019ACFCB010E94FF
:10203000460E7C01009749F0AE01B8010E942810BD
:10204000C8010E94E20E870153CF10E000E050CF9C
:10205000FB01DC0102C001900D9241505040D8F7C5
:102060000895FB01DC0101900D920020E1F7089535
:1020700010E0C2E6D0E004C0FE010E94260D2196C9
:0A208000C336D107C9F7F894FFCF6B
:10208A0000009403800000000000020262018F0138
:10209A004F02C0019E01B2014F006F004F505449D8
:1020AA004F4E53006F7074696F6E7300534F5552E1
:1020BA00434500736F7572636500430063004341D3
:1020CA004C4942524154450063616C6962726174C1
:1020DA00650052007200524553455400726573659B
:1020EA007400420062004241434B006261636B002C
:1020FA00455849540065786974005000700050577B
:10210A004D0070776D0055007500554152540075A9
:10211A00617274004400640044495341424C4500D2
:08212A0064697361626C6500D9
:00000001FF
