:100000000C945E000C9486000C9486000C94860080
:100010000C9486000C9486000C9486000C94860048
:100020000C9486000C9486000C9486000C94860038
:100030000C9486000C9486000C9486000C94860028
:100040000C94D6020C9486000C9446030C94200366
:100050000C9486000C9486000C9486000C94860008
:100060000C9486000C9486000000000024002700F9
:100070002A0000000000250028002B0004040404CE
:100080000404040402020202020203030303030342
:10009000010204081020408001020408102001021F
:1000A00004081020000000080002010000030407FB
:1000B0000000000000000000F203060A11241FBE29
:1000C000CFEFD8E0DEBFCDBF11E0A0E0B1E0E2EEBF
:1000D000FEE102C005900D92A639B107D9F723E0E1
:1000E000A6E9B1E001C01D92A536B207E1F710E024
:1000F000CDE5D0E004C02197FE010E94520CCC3522
:10010000D107C9F70E9471050C94640F0C9400008C
:1001100090E0FC01EC55FF4F2491FC01E057FF4FAC
:100120003491FC01E458FF4FE491EE23C9F02223FF
:1001300039F0233001F1A8F4213019F1223029F1EE
:10014000F0E0EE0FFF1FEE58FF4FA591B4918FB76F
:10015000F894EC91611126C030953E233C938FBFFB
:1001600008952730A9F02830C9F0243049F780914C
:1001700080008F7D03C0809180008F778093800006
:10018000DFCF84B58F7784BDDBCF84B58F7DFBCF88
:100190008091B0008F778093B000D2CF8091B00073
:1001A0008F7DF9CF3E2BDACF8E3008F08E508770DE
:1001B000806480937C0080917A00806480937A00D0
:1001C00080917A0086FDFCCF809178009091790033
:1001D00008958F929F92AF92BF92CF92DF92EF924B
:1001E000FF92CF93DF93CFE7D0E0C12CD12C7601E3
:1001F00088248A9483E0982EA12CB12C80919102BE
:100200000E94D40027E631E0DC010E944B0CA501DE
:1002100094010E94C40BCA01B9016F5F7F4F8F4FD9
:100220009F4F0E94910A9B01AC01C701B6010E9439
:10023000590C6B017C01219709F720E030E04EEF6B
:1002400052E40E94C50C0E94370DCB01DF91CF9183
:10025000FF90EF90DF90CF90BF90AF909F908F90E6
:1002600008958F929F92AF92BF92CF92DF92EF92BA
:10027000FF92CF93DF93CFE7D0E0C12CD12C760152
:100280008090860290908702092C000CAA08BB0877
:10029000809183020E94D40027E631E0DC010E94B5
:1002A0004B0CA50194010E94C40BCA01B9016F5FF8
:1002B0007F4F8F4F9F4F0E94910A9B01AC01C70156
:1002C000B6010E94590C6B017C012197C9F660911F
:1002D000840270918502072E000C880B990B0E94F6
:1002E000910A4B015C0120E030E04EEF52E4C7017F
:1002F000B6010E94C50C9B01AC01C501B4010E946E
:10030000590C0E94370D9B016936714014F0285634
:100310003140C901DF91CF91FF90EF90DF90CF90F6
:10032000BF90AF909F908F900895809192020E940D
:10033000D400209195023091960237FF02C02D5FC4
:100340003F4F3595279535952795821793079CF054
:10035000A901440F551F281739071CF48417950766
:1003600064F0481759075CF4240F351F8217930770
:1003700034F482E0089580E0089581E0089583E0F8
:100380000895AF92BF92CF92DF92EF92FF920F93B8
:100390001F93CF93DF936C017B018B01040F151F1B
:1003A000EB015E01AE18BF08C017D10759F0699183
:1003B000D601ED91FC910190F081E02DC6010995E7
:1003C000892B79F7C501DF91CF911F910F91FF9094
:1003D000EF90DF90CF90BF90AF900895FC01538DC8
:1003E000448D252F30E0842F90E0821B930B54170F
:1003F00010F0CF96089501970895FC01918D828D9C
:10040000981761F0A28DAE0FBF2FB11D5D968C9134
:10041000928D9F5F9F73928F90E008958FEF9FEF73
:100420000895FC01918D828D981731F0828DE80F2F
:10043000F11D858D90E008958FEF9FEF0895FC01E9
:10044000918D228D892F90E0805C9F4F821B9109B6
:100450008F739927089584EA91E00E941F0221E09A
:10046000892B09F420E0822F089580E090E0892B09
:1004700029F00E942B0281110C9400000895FC01C8
:10048000A48DA80FB92FB11DA35ABF4F2C91848DF5
:1004900090E001968F739927848FA689B7892C9352
:1004A000A089B1898C91837080648C93938D848DA5
:1004B000981306C00288F389E02D80818F7D8083A8
:1004C0000895EF92FF920F931F93CF93DF93EC0168
:1004D00081E0888F9B8D8C8D98131AC0E889F989EB
:1004E000808185FF15C09FB7F894EE89FF896083EE
:1004F000E889F98980818370806480839FBF81E06F
:1005000090E0DF91CF911F910F91FF90EF900895B0
:10051000F62E0B8D10E00F5F1F4F0F731127E02E8B
:100520008C8D8E110CC00FB607FCFACFE889F989C3
:10053000808185FFF5CFCE010E943F02F1CFEB8D88
:10054000EC0FFD2FF11DE35AFF4FF0829FB7F89497
:100550000B8FEA89FB8980818062CFCFCF93DF93B5
:10056000EC01888D8823B9F0AA89BB89E889F989CB
:100570008C9185FD03C0808186FD0DC00FB607FC00
:10058000F7CF8C9185FFF2CF808185FFEDCFCE0133
:100590000E943F02E9CFDF91CF910895FC01808155
:1005A0009181009711F00C940E0E08951F920F92F6
:1005B0000FB60F9211242F933F938F939F93AF9376
:1005C000BF938091A0019091A101A091A201B0914F
:1005D000A30130919F0123E0230F2D3758F5019699
:1005E000A11DB11D20939F018093A0019093A101B3
:1005F000A093A201B093A30180919B0190919C01D3
:10060000A0919D01B0919E010196A11DB11D809305
:100610009B0190939C01A0939D01B0939E01BF917B
:10062000AF919F918F913F912F910F900FBE0F909F
:100630001F90189526E8230F0296A11DB11DD2CF59
:100640001F920F920FB60F9211242F933F934F9347
:100650005F936F937F938F939F93AF93BF93EF932A
:10066000FF9384EA91E00E943F02FF91EF91BF91D6
:10067000AF919F918F917F916F915F914F913F913A
:100680002F910F900FBE0F901F9018951F920F92F1
:100690000FB60F9211242F938F939F93EF93FF9395
:1006A000E091B401F091B5018081E091BA01F0913F
:1006B000BB0182FD1BC090818091BD018F5F8F7354
:1006C0002091BE01821741F0E091BD01F0E0EC55B0
:1006D000FE4F958F8093BD01FF91EF919F918F9178
:1006E0002F910F900FBE0F901F9018958081F4CF1F
:1006F000CF93DF9390E0FC01E057FF4F24918458A3
:100700009F4FFC0184918823D1F090E0880F991FBE
:10071000FC01E859FF4FA591B491FC01EE58FF4F41
:10072000C591D49161110EC09FB7F8948C91E22FBE
:10073000E0958E238C932881E223E8839FBFDF918D
:10074000CF9108958FB7F894EC91E22BEC938FBF83
:10075000F6CFEF92FF920F931F93CF93DF93EC01AD
:100760007B01198218821B821A821D821C82FB0166
:1007700001900020E9F731978F01061B170BB80194
:100780006F5F7F4F90E080E00E94970E0097B9F076
:10079000998388831B830A832C813D81232B11F449
:1007A000FC0110821D830C83B70188819981DF9140
:1007B000CF911F910F91FF90EF900C945D0F888166
:1007C0009981009711F00E940E0E198218821D82E5
:1007D0001C821B821A82DF91CF911F910F91FF9093
:1007E000EF900895CF93DF93E4EAF1E01382128251
:1007F00088EE93E0A0E0B0E084839583A683B7837E
:100800008AE091E09183808385EC90E095878487EE
:1008100084EC90E09787868780EC90E0918B808BCA
:1008200081EC90E0938B828B82EC90E0958B848BB3
:1008300086EC90E0978B868B118E128E138E148E21
:10084000CCE8D2E08FEF93E098878F8380E091E04F
:100850009A87898788E691E09C878B8784EB90E074
:100860009E878D8765E671E08BE992E00E94A9037F
:1008700068E171E081EA92E00E94A9036AE171E017
:1008800087EA92E00E94A9036CE171E08DEA92E0B0
:100890000E94A90364E271E083EB92E00E94A90345
:1008A00062E271E089EB92E00E94A9036AE271E0E2
:1008B0008FEB92E00E94A9036CE271E085EC92E07C
:1008C0000E94A90363E371E08BEC92E00E94A9030C
:1008D0006AE371E081ED92E00E94A9036CE371E0AC
:1008E00087ED92E00E94A9036EE371E08DED92E046
:1008F0000E94A90365E471E083EE92E00E94A903DF
:100900006CE471E089EE92E00E94A9036EE471E06C
:100910008FEE92E00E94A90360E571E085EF92E01E
:100920000E94A9036AE571E08BEF92E00E94A9039F
:1009300064E671E081E093E00E94A90366E671E05D
:1009400087E093E00E94A90368E671E08DE093E000
:100950000E94A9036DE671E083E193E00E94A90380
:1009600061E371E089E193E00E94A90368E371E02B
:100970008FE193E00E94A90362E771E085E293E0D2
:100980000E94A90367E771E08BE293E00E94A9034C
:100990006CE771E081E393E00E94A9036EE771E0E8
:1009A00087E393E00E94A90360E871E08DE393E0A0
:1009B0000E94A90364E871E083E493E00E94A90324
:1009C00068E871E089E493E00E94A9036AE871E0B5
:1009D0008FE493E00E94A9036CE871E085E593E061
:1009E0000E94A90361E971E08BE593E00E94A903ED
:1009F0008FE08D8380E18E8360E08FE00E9478033A
:100A000060E08E810E947803E3E8F2E012821182B6
:100A10008EE0808380E094E09483838380E090E0A4
:100A2000A0E0B0E485839683A783B08760E08EE082
:100A30000E947803C1E7D2E086E0888385E089835D
:100A400084E08A8389E08B8361E086E00E947803FA
:100A500061E089810E94780361E08A810E947803C5
:100A600061E08B810E947803E1E4F2E01082118260
:100A700012821382148215821682178210861186C2
:100A8000128613861486158616861786108A118A92
:100A9000128A138A148A158A168A178A108E118E62
:100AA000128E138E84E690E0958F848F8DEC9CECF3
:100AB000ACECBDE3868F978FA0A3B1A312A213A2C3
:100AC00015A214A28FEF90E097A386A310A611A6FB
:100AD00012A613A614A615A616A617A6DF91CF91E7
:100AE0000895CF93DF9300D000D000D01F92CDB7F0
:100AF000DEB7789484B5826084BD84B5816084BD9E
:100B000085B5826085BD85B5816085BD80916E00AB
:100B1000816080936E0010928100809181008260DC
:100B20008093810080918100816080938100809119
:100B300080008160809380008091B1008460809308
:100B4000B1008091B00081608093B00080917A0004
:100B5000846080937A0080917A00826080937A002A
:100B600080917A00816080937A0080917A00806819
:100B700080937A001092C100E091B401F091B50128
:100B800082E08083E091B001F091B1011082E091A8
:100B9000B201F091B30183E180831092BC01E09136
:100BA000B801F091B90186E08083E091B601F0913F
:100BB000B701808180618083E091B601F091B70137
:100BC000808188608083E091B601F091B7018081D7
:100BD00080688083E091B601F091B70180818F7DBC
:100BE000808390E080E00E94AE0B898381E090E0FA
:100BF0000E94AE0B8A8389819A81909385028093AB
:100C000084021092970182EA8093800089E18093A8
:100C1000810081E0809387008FEF809386008FE6CC
:100C200092E1A3E8BAE380935F0290936002A093FD
:100C30006102B093620281E090E090935E02809343
:100C40005D0204E1202E312C0E949501833009F0D1
:100C50009EC3809190028111FFC10E94E900BC01F6
:100C6000990F880B990B0E94910A6093410270932F
:100C7000420280934302909344020E943101BC01DE
:100C8000990F880B990B0E94910A6093450270930B
:100C90004602809347029093480261E0809171027E
:100CA0000E9488008090410290904202A0904302EE
:100CB000B0904402C0904502D0904602E0904702B6
:100CC000F0904802A7019601C501B4010E946D0D84
:100CD00018160CF0D9C180E090E0A0E0BFE380934B
:100CE000510290935202A0935302B0935402A70171
:100CF0009601C501B4010E94580C20E030E040E0AC
:100D000050E40E948A0A18160CF4ABC180E090E00F
:100D1000A0E8BFE380934D0290934E02A0934F0250
:100D2000B09350023092660220926502ACE2B1E0CC
:100D3000B0936802A093670261E0809172020E9402
:100D4000880060E0809173020E9488001092640223
:100D50008FB7F8944091A0015091A1016091A20138
:100D60007091A3018FBF80916D0290916E02A0914E
:100D70006F02B0917002481B590B6A0B7B0B80917C
:100D80005D0290915E02B0E0A0E0481759076A0743
:100D90007B0708F43AC12FB7F8948091A001909195
:100DA000A101A091A201B091A3012FBF80936D0278
:100DB00090936E02A0936F02B093700280904502F0
:100DC00090904602A0904702B0904802A50194017D
:100DD00060914102709142028091430290914402DD
:100DE0000E94580C6B017C01A5019401609169027D
:100DF00070916A0280916B0290916C020E94580C73
:100E00006B837C838D839E838092690290926A02B9
:100E1000A0926B02B0926C0280916402882369F008
:100E2000F7FAF094F7F8F0948B819C81AD81BE8144
:100E3000B0588B839C83AD83BE8310916302412C99
:100E4000512C320111110EC020914D0230914E02F1
:100E500040914F0250915002C701B6010E94F00A22
:100E60002B013C0180905F0290906002A090610293
:100E7000B090620220915502309156024091570283
:100E8000509158026B817C818D819E810E94F00A75
:100E9000A50194010E94C50CA30192010E94590C66
:100EA0002B013C012091510230915202409153029A
:100EB00050915402C701B6010E94F00AA5019401A5
:100EC0000E94F00A2091590230915A0240915B022F
:100ED00050915C020E94590C6B017C01C092590236
:100EE000D0925A02E0925B02F0925C021123D1F0A0
:100EF00020914D0230914E0240914F02509150028C
:100F00006B817C818D819E810E94F00AA7019601F0
:100F10000E94590C6093590270935A0280935B02AD
:100F200090935C02909159029B83A0915A02AF83E7
:100F300000915B0210915C02609165027091660203
:100F4000072E000C880B990B0E94910A6B017C0103
:100F50009B01AC016B817F81C8010E948A0A460116
:100F6000570187FD18C06091670270916802072ED3
:100F7000000C880B990B0E94910A4B015C019B01AC
:100F8000AC016B817F81C8010E946D0D18161CF0A9
:100F90008B809F805801C401D501809359029093A2
:100FA0005A02A0935B02B0935C029401A501C301B5
:100FB000B2010E94590C5B018C019B01AC01B6018E
:100FC000C7010E946D0D1816B4F060916702709110
:100FD0006802072E000C880B990B0E94910A6B0186
:100FE0007C019B01AC01B501C8010E946D0D181672
:100FF00014F065017801C601D701809349029093EE
:101000004A02A0934B02B0934C0260914902709146
:101010004A0280914B0290914C020E943E0D9B012E
:1010200080917402F894863009F41EC108F09EC0C5
:10103000833009F4C6C0853009F4F1C0789480E0AB
:1010400090E0892B09F400CE0E942B02882309F43A
:10105000FBCD0E940000F8CD8091990290919A02F8
:10106000FECD86E696E6A6EEBFE380934D02909312
:101070004E02A0934F02B09350023092660220922B
:101080006502AFEFB1E054CEA7019601C501B401EE
:101090000E948A0A87FF51C080E090E0A0E0BFE391
:1010A0008093510290935202A0935302B093540242
:1010B000A5019401C701B6010E94580C20E030E060
:1010C00040E050E40E948A0A181624F180E090E083
:1010D000A0E8BFE380934D0290934E02A0934F028D
:1010E000B09350023092660220926502ACE2B1E009
:1010F000B0936802A093670260E0809172020E9440
:10110000880061E0809173020E94880081E08093F2
:1011100064021ECE86E696E6A6EEBFE380934D02FD
:1011200090934E02A0934F02B09350023092660209
:1011300020926502AFEFB1E0DBCF10924D0210922A
:101140004E0210924F0210925002109251021092D1
:1011500052021092530210925402109266021092A0
:1011600065021092680210926702F2CD8A3009F48B
:10117000B2C08B3009F4EDC0893009F05FCF8091A7
:101180009701882399F09091860080918700A82F7D
:10119000B0E0BA2FAA27A90FB11D9B010E944B0CEA
:1011A0002FEF30E040E050E00E94C40B21153105E4
:1011B00009F074C0809180008F7780938000299817
:1011C0003DCF80919A01882361F02091B30030E0F7
:1011D000DB010E943C0C2FEF30E040E050E00E9429
:1011E000C40B2115310539F48091B0008F7D8093B7
:1011F000B0005B9823CF8091B3008217130639F4B7
:101200008091B0008F7D8093B0005B9A17CF809162
:10121000B00080628093B0002093B4000FCF809123
:101220009901882359F027B530E0DB010E943C0C7E
:101230002FEF30E040E050E00E94C40B2115310553
:1012400029F484B58F7D84BD5D98F8CE87B582176B
:10125000130629F484B58F7D84BD5D9AEFCE84B5E5
:10126000806284BD28BDEACE80919801882399F0E0
:1012700084B52115310521F48F7D84BD5E98DECEC5
:101280002F3F310521F48F7D84BD5E9AD7CE8062D9
:1012900084BD67BDD3CE84B58068FACF4091860007
:1012A0008091870090E0982F8827840F911D281740
:1012B000390739F4809180008F7780938000299AD4
:1012C000BDCE80918000806880938000309389003B
:1012D00020938800B3CE80919701882399F0909154
:1012E000860080918700A82FB0E0BA2FAA27A90F07
:1012F000B11D9B010E944B0C2FEF30E040E050E00D
:101300000E94C40B2115310539F4809180008F7D36
:10131000809380002A9892CE409186008091870029
:1013200090E0982F8827840F911D2817390739F4EA
:10133000809180008F7D809380002A9A7FCE80915B
:10134000800080628093800030938B0020938A001D
:1013500075CE80919601882391F08091B00021157F
:10136000310529F48F778093B0002B9867CE2F3FFB
:10137000310539F48F778093B0002B9A5FCE80913E
:10138000B00080688093B0006093B30057CE0E9495
:101390009501811106C060E0809171020E94880071
:1013A0004ECE0E949501823009F049CE60E08091D6
:1013B00071020E9488008091900200919902109120
:1013C0009A02811103C00E94E9008C010E94310140
:1013D000081B190B109385020093840290E080E0B3
:1013E0000E94AE0B801729F0602F90E080E00E94F1
:1013F000B60B81E090E00E94AE0B811709F41FCE7E
:10140000612F81E090E00E94B60B19CE8BE593E04E
:101410000E94CE0285E593E00E94CE028FE493E025
:101420000E94CE0289E493E00E94CE0283E493E01E
:101430000E94CE028DE393E00E94CE0287E393E008
:101440000E94CE0281E393E00E94CE028BE293E001
:101450000E94CE0285E293E00E94CE028FE193E0EB
:101460000E94CE0289E193E00E94CE0283E193E0E4
:101470000E94CE028DE093E00E94CE0287E093E0CE
:101480000E94CE0281E093E00E94CE028BEF92E0B8
:101490000E94CE0285EF92E00E94CE028FEE92E093
:1014A0000E94CE0289EE92E00E94CE0283EE92E08C
:1014B0000E94CE028DED92E00E94CE0287ED92E076
:1014C0000E94CE0281ED92E00E94CE028BEC92E06F
:1014D0000E94CE0285EC92E00E94CE028FEB92E059
:1014E0000E94CE0289EB92E00E94CE0283EB92E052
:1014F0000E94CE028DEA92E00E94CE0287EA92E03C
:101500000E94CE0281EA92E00E94CE028BE992E034
:101510000C94CE020E94CC0A08F481E00895E8946D
:1015200009C097FB3EF490958095709561957F4F2B
:101530008F4F9F4F9923A9F0F92F96E9BB279395D9
:10154000F695879577956795B795F111F8CFFAF4E9
:10155000BB0F11F460FF1BC06F5F7F4F8F4F9F4F1A
:1015600016C0882311F096E911C0772321F09EE878
:10157000872F762F05C0662371F096E8862F70E0DE
:1015800060E02AF09A95660F771F881FDAF7880FB8
:101590009695879597F90895990F0008550FAA0B0E
:1015A000E0E8FEEF16161706E807F907C0F0121676
:1015B0001306E407F50798F0621B730B840B950B79
:1015C00039F40A2661F0232B242B252B21F40895CE
:1015D0000A2609F4A140A6958FEF811D811D08956B
:1015E0000E94030B0C94740B0E94660B38F00E944F
:1015F0006D0B20F0952311F00C945D0B0C94630B94
:1016000011240C94A80B0E94850B70F3959FC1F3D5
:10161000950F50E0551F629FF001729FBB27F00DA0
:10162000B11D639FAA27F00DB11DAA1F649F6627F5
:10163000B00DA11D661F829F2227B00DA11D621F44
:10164000739FB00DA11D621F839FA00D611D221FFE
:10165000749F3327A00D611D231F849F600D211DE2
:10166000822F762F6A2F11249F5750409AF0F1F065
:1016700088234AF0EE0FFF1FBB1F661F771F881FCE
:1016800091505040A9F79E3F510580F00C945D0B9E
:101690000C94A80B5F3FE4F3983ED4F386957795BE
:1016A0006795B795F795E7959F5FC1F7FE2B880F74
:1016B000911D9695879597F9089597F99F6780E80A
:1016C00070E060E008959FEF80EC089500240A9494
:1016D0001616170618060906089500240A9412160D
:1016E0001306140605060895092E0394000C11F440
:1016F000882352F0BB0F40F4BF2B11F460FF04C0ED
:101700006F5F7F4F8F4F9F4F089557FD9058440F45
:10171000551F59F05F3F71F04795880F97FB991F50
:1017200061F09F3F79F0879508951216130614060D
:10173000551FF2CF4695F1DF08C01616170618069A
:10174000991FF1CF86957105610508940895E89475
:10175000BB2766277727CB0197F90895F999FECF24
:1017600092BD81BDF89A992780B50895262FF999E1
:10177000FECF1FBA92BD81BD20BD0FB6F894FA9A74
:10178000F99A0FBE01960895052E97FB1EF400945A
:101790000E94DB0B57FD07D00E941A0C07FC03D0F8
:1017A0004EF40C94DB0B50954095309521953F4FAE
:1017B0004F4F5F4F089590958095709561957F4F3D
:1017C0008F4F9F4F08952F923F924F925F926F924B
:1017D0007F928F929F92AF92BF92CF92DF92EF92C1
:1017E000FF920F931F93CF93DF93CDB7DEB7CA1B42
:1017F000DB0B0FB6F894DEBF0FBECDBF09942A886D
:10180000398848885F846E847D848C849B84AA8414
:10181000B984C884DF80EE80FD800C811B81AA81A1
:10182000B981CE0FD11D0FB6F894DEBF0FBECDBF6C
:10183000ED010895A1E21A2EAA1BBB1BFD010DC0EC
:10184000AA1FBB1FEE1FFF1FA217B307E407F50770
:1018500020F0A21BB30BE40BF50B661F771F881F4C
:10186000991F1A9469F760957095809590959B01E2
:10187000AC01BD01CF010895A29FB001B39FC0018B
:10188000A39F700D811D1124911DB29F700D811DAC
:101890001124911D08950E943C0CB7FF0895821BEE
:1018A000930B0895EE0FFF1F0590F491E02D09941E
:1018B0005058BB27AA270E94700C0C94740B0E94EE
:1018C000660B38F00E946D0B20F039F49F3F19F43D
:1018D00026F40C94630B0EF4E095E7FB0C945D0B7F
:1018E000E92F0E94850B58F3BA1762077307840724
:1018F000950720F079F4A6F50C94A70B0EF4E0956B
:101900000B2EBA2FA02D0B01B90190010C01CA01B9
:10191000A0011124FF27591B99F0593F50F4503E64
:1019200068F11A16F040A22F232F342F4427585F56
:10193000F3CF469537952795A795F0405395C9F76E
:101940007EF41F16BA0B620B730B840BBAF0915026
:10195000A1F0FF0FBB1F661F771F881FC2F70EC0C5
:10196000BA0F621F731F841F48F487957795679598
:10197000B795F7959E3F08F0B0CF9395880F08F084
:101980009927EE0F9795879508950E94D90C0C948E
:10199000740B0E946D0B58F00E94660B40F029F406
:1019A0005F3F29F00C945D0B51110C94A80B0C9423
:1019B000630B0E94850B68F39923B1F3552391F3D0
:1019C000951B550BBB27AA2762177307840738F0AE
:1019D0009F5F5F4F220F331F441FAA1FA9F335D00B
:1019E0000E2E3AF0E0E832D091505040E695001CBF
:1019F000CAF72BD0FE2F29D0660F771F881FBB1F79
:101A0000261737074807AB07B0E809F0BB0B802D56
:101A1000BF01FF2793585F4F3AF09E3F510578F082
:101A20000C945D0B0C94A80B5F3FE4F3983ED4F349
:101A3000869577956795B795F7959F5FC9F7880F56
:101A4000911D9695879597F90895E1E0660F771FA8
:101A5000881FBB1F621773078407BA0720F0621B39
:101A6000730B840BBA0BEE1F88F7E09508950E9464
:101A70003E0D6894B1110C94A80B08950E948D0B33
:101A800088F09F5798F0B92F9927B751B0F0E1F03F
:101A9000660F771F881F991F1AF0BA95C9F714C0EF
:101AA000B13091F00E94A70BB1E008950C94A70B00
:101AB000672F782F8827B85F39F0B93FCCF3869528
:101AC00077956795B395D9F73EF490958095709585
:101AD00061957F4F8F4F9F4F08950E94CC0A08F465
:101AE0008FEF08950F931F93CF93DF93823091056B
:101AF00010F482E090E0E0916303F091640330E041
:101B000020E0B0E0A0E0309799F42115310509F408
:101B10004AC0281B390B24303105D8F58A819B81B6
:101B20006115710589F1FB0193838283FE0111C068
:101B3000408151810281138148175907E0F048170D
:101B4000590799F4109761F012960C931297139617
:101B50001C933296CF01DF91CF911F910F91089581
:101B60000093630310936403F4CF2115310551F002
:101B70004217530738F0A901DB019A01BD01DF01CB
:101B8000F801C1CFEF01F9CF909364038093630311
:101B9000CDCFFE01E20FF31F8193919322503109C3
:101BA00039832883D7CF2091610330916203232B9F
:101BB00041F420910201309103013093620320939C
:101BC000610320910001309101012115310541F49B
:101BD0002DB73EB74091040150910501241B350BF0
:101BE000E0916103F0916203E217F307A0F42E1B6A
:101BF0003F0B2817390778F0AC014E5F5F4F241771
:101C0000350748F04E0F5F1F509362034093610306
:101C1000819391939FCFF0E0E0E09CCFCF93DF934F
:101C20000097E9F0FC01329713821282A0916303BE
:101C3000B0916403ED0130E020E01097A1F4208121
:101C40003181820F931F2091610330916203281725
:101C5000390709F061C0F0936203E0936103DF91FB
:101C6000CF910895EA01CE17DF07E8F54A815B813D
:101C70009E0141155105B1F7E901FB83EA834991C2
:101C80005991C40FD51FEC17FD0761F48081918134
:101C90000296840F951FE90199838883828193813D
:101CA0009B838A83F0E0E0E012968D919C911397DC
:101CB0000097B9F52D913C911197CD010296820FB5
:101CC000931F20916103309162032817390739F679
:101CD000309751F51092640310926303B09362033E
:101CE000A0936103BCCFD383C28340815181840F11
:101CF000951FC817D90761F44E5F5F4F888199819E
:101D0000480F591F518340838A819B81938382832B
:101D10002115310509F0B0CFF0936403E09363031C
:101D20009ECFFD01DC01C0CF13821282D7CFB0E07D
:101D3000A0E0EDE9FEE00C94E50B8C01009751F476
:101D4000CB010E94720D8C01C801CDB7DEB7E0E176
:101D50000C94010CFC01E60FF71F9C012250310985
:101D6000E217F30708F49DC0D901CD91DC911197DA
:101D7000C617D70798F0C530D10530F3CE010497C8
:101D80008617970708F3C61BD70B2297C193D193E9
:101D90006D937C93CF010E940E0ED6CF5B01AC1ADF
:101DA000BD0A4C018C0E9D1EA0916303B09164038B
:101DB000512C412CF12CE12C109731F580916103CD
:101DC000909162038815990509F05CC04616570684
:101DD00008F058C08091000190910101009741F4F2
:101DE0008DB79EB74091040150910501841B950B5E
:101DF000E817F90708F055C0F0936203E093610318
:101E0000F90171836083A0CF8D919C9111971296F7
:101E10006C90129713967C901397A815B90559F5F5
:101E20006C0142E0C40ED11CCA14DB0420F1AC01E9
:101E30004A195B09DA011296159780F06282738263
:101E400051834083D9016D937C93E114F10471F0C7
:101E5000D7011396FC93EE93129776CF22968C0FB0
:101E60009D1FF90191838083F301EFCFF093640309
:101E7000E093630369CF4816590608F42C017D01ED
:101E8000D3019ACFCB010E94720D7C01009749F0DB
:101E9000AE01B8010E94540FC8010E940E0E8701C6
:101EA00053CF10E000E050CFFB01DC0102C00190F5
:101EB0000D9241505040D8F70895FB01DC0101908C
:101EC0000D920020E1F7089510E0CDE5D0E004C0C8
:101ED000FE010E94520C2196CE35D107C9F7F89425
:021EE000FFCF32
:101EE200000065038000000000006102C101EE01F4
:101EF200AE021F02FD0111024F006F004F50544904
:101F02004F4E53006F7074696F6E7300534F55528A
:101F1200434500736F757263650052007200524F41
:101F22005441544500726F7461746500430063004C
:101F320043414C4942524154450063616C696272AB
:101F420061746500420062004241434B006261637A
:101F52006B00455849540065786974005000700060
:101F620050574D0070776D00550075005541525421
:061F7200007561727400AD
:00000001FF
