:100000000C9454000C947C000C947C000C947C00A8
:100010000C947C000C947C000C947C000C947C0070
:100020000C947C000C947C000C947C000C947C0060
:100030000C947C000C947C000C947C000C947C0050
:100040000C949B010C947C000C940B020C94E50125
:100050000C947C000C943D020C947C000C947C006D
:100060000C947C000C947C0000000000250028000B
:100070002B0000000000240027002A0004040404D0
:100080000404040402020202020203030303030342
:10009000010204081020408001020408102001021F
:1000A00004081020FB025F0A11241FBECFEFD8E026
:1000B000DEBFCDBF11E0A0E0B1E0E8E9FFE102C0A2
:1000C00005900D92A43BB107D9F723E0A4EBB1E072
:1000D00001C01D92A83AB207E1F710E0C3E5D0E0F5
:1000E00004C02197FE010E94AD0CC235D107C9F7AB
:1000F0000E94A2040C94BF0F0C940000AF92BF9218
:10010000CF92DF92EF92FF920F931F93CF93DF93E3
:100110006C017B018B01040F151FEB015E01AE1812
:10012000BF08C017D10759F06991D601ED91FC9134
:100130000190F081E02DC6010995892B79F7C50161
:10014000DF91CF911F910F91FF90EF90DF90CF90B3
:10015000BF90AF900895FC01538D448D252F30E062
:10016000842F90E0821B930B541710F0CF960895C4
:1001700001970895FC01918D828D981761F0A28DF1
:10018000AE0FBF2FB11D5D968C91928D9F5F9F73B7
:10019000928F90E008958FEF9FEF0895FC01918D6D
:1001A000828D981731F0828DE80FF11D858D90E0DA
:1001B00008958FEF9FEF0895FC01918D228D892F77
:1001C00090E0805C9F4F821B91098F73992708955F
:1001D00086EC91E00E94DC0021E0892B09F420E00C
:1001E000822F089580E090E0892B29F00E94E8009A
:1001F00081110C9400000895FC01A48DA80FB92F63
:10020000B11DA35ABF4F2C91848D90E001968F733E
:100210009927848FA689B7892C93A089B1898C915D
:10022000837080648C93938D848D981306C00288AC
:10023000F389E02D80818F7D80830895EF92FF9276
:100240000F931F93CF93DF93EC0181E0888F9B8DF9
:100250008C8D98131AC0E889F989808185FF15C0B3
:100260009FB7F894EE89FF896083E889F9898081D6
:100270008370806480839FBF81E090E0DF91CF91A5
:100280001F910F91FF90EF900895F62E0B8D10E0C7
:100290000F5F1F4F0F731127E02E8C8D8E110CC036
:1002A0000FB607FCFACFE889F989808185FFF5CF81
:1002B000CE010E94FC00F1CFEB8DEC0FFD2FF11D64
:1002C000E35AFF4FF0829FB7F8940B8FEA89FB89BE
:1002D00080818062CFCFCF93DF93EC01888D88231C
:1002E000B9F0AA89BB89E889F9898C9185FD03C099
:1002F000808186FD0DC00FB607FCF7CF8C9185FF7E
:10030000F2CF808185FFEDCFCE010E94FC00E9CFC6
:10031000DF91CF91089542E050E06BE171E086EC0F
:1003200091E00C947E00FC0180819181009711F096
:100330000C94690E08951F920F920FB60F9211241C
:100340002F933F938F939F93AF93BF938091C2015D
:100350009091C301A091C401B091C5013091C10138
:1003600023E0230F2D3758F50196A11DB11D2093D1
:10037000C1018093C2019093C301A093C401B093C3
:10038000C5018091BD019091BE01A091BF01B091C6
:10039000C0010196A11DB11D8093BD019093BE01C6
:1003A000A093BF01B093C001BF91AF919F918F9176
:1003B0003F912F910F900FBE0F901F90189526E838
:1003C000230F0296A11DB11DD2CF1F920F920FB61F
:1003D0000F9211242F933F934F935F936F937F93CB
:1003E0008F939F93AF93BF93EF93FF9386EC91E02E
:1003F0000E94FC00FF91EF91BF91AF919F918F916F
:100400007F916F915F914F913F912F910F900FBE10
:100410000F901F9018951F920F920FB60F921124F4
:100420002F938F939F93EF93FF93E091D601F091D9
:10043000D7018081E091DC01F091DD0182FD1BC0DC
:1004400090818091DF018F5F8F732091E00182178F
:1004500041F0E091DF01F0E0EA53FE4F958F809389
:10046000DF01FF91EF919F918F912F910F900FBE20
:100470000F901F9018958081F4CF1F920F920FB6A6
:100480000F9211248F939F9380910001909101010D
:100490000E9749F5909178008091790089279827E7
:1004A00089279093B3028093B202809100019091CA
:1004B00001010E9721F18EE090E09093010180936D
:1004C000000180910001909101018E508770909100
:1004D0000201892B80937C009F918F910F900FBE1A
:1004E0000F901F901895909178008091790089273E
:1004F000982789279093A6028093A502D6CF8FE0F4
:10050000DBCFCF93DF9390E0FC01E057FF4F2491C6
:1005100084589F4FFC0184918823D1F090E0880F8C
:10052000991FFC01EE58FF4FA591B491FC01E859C9
:10053000FF4FC591D49161110EC09FB7F8948C9173
:10054000E22FE0958E238C932881E223E8839FBFDE
:10055000DF91CF9108958FB7F894EC91E22BEC9353
:100560008FBFF6CFEF92FF920F931F93CF93DF933E
:10057000EC017B01198218821B821A821D821C8267
:10058000FB0101900020E9F731978F01061B170B43
:10059000B8016F5F7F4F90E080E00E94F20E0097FD
:1005A000B9F0998388831B830A832C813D81232B97
:1005B00011F4FC0110821D830C83B701888199819D
:1005C000DF91CF911F910F91FF90EF900C94B80F96
:1005D00088819981009711F00E94690E1982188212
:1005E0001D821C821B821A82DF91CF911F910F9175
:1005F000FF90EF9008950F931F93CF93DF93E6EC56
:10060000F1E01382128288EE93E0A0E0B0E08483F0
:100610009583A683B7838DE091E09183808385ECF9
:1006200090E09587848784EC90E09787868780ECBC
:1006300090E0918B808B81EC90E0938B828B82ECAD
:1006400090E0958B848B86EC90E0978B868B118E57
:10065000128E138E148EC2EBD2E081E089878FEF69
:1006600093E09F878E8784EB90E0998B888B0FE1D6
:1006700010E01B8B0A8B6DE171E086EC92E00E942A
:10068000B2026EE171E08CEC92E00E94B20260E294
:1006900071E082ED92E00E94B20262E271E088EDC8
:1006A00092E00E94B2026AE271E08EED92E00E9456
:1006B000B20268E271E084EE92E00E94B20260E36E
:1006C00071E08AEE92E00E94B20262E371E080EF94
:1006D00092E00E94B20269E371E086EF92E00E942C
:1006E000B20260E471E08CEF92E00E94B20262E438
:1006F00071E082E093E00E94B20264E471E088E07D
:1007000093E00E94B2026EE471E08EE093E00E94FA
:10071000B20268E571E084E193E00E94B2026AE50A
:1007200071E08AE193E00E94B2026CE571E080E240
:1007300093E00E94B20262E671E086E293E00E94DA
:10074000B20268E671E08CE293E00E94B2026AE6CF
:1007500071E082E393E00E94B2026CE671E088E30C
:1007600093E00E94B20261E771E08EE393E00E94A1
:10077000B20267E371E084E493E00E94B2026EE3A8
:1007800071E08AE493E00E94B20266E771E080E5DE
:1007900093E00E94B2026BE771E086E593E00E946D
:1007A000B20260E871E08CE593E00E94B20262E878
:1007B00071E082E693E00E94B20264E871E088E6AC
:1007C00093E00E94B20268E871E08EE693E00E9436
:1007D000B2026CE871E084E793E00E94B2026EE836
:1007E00071E08AE793E00E94B20260E971E080E87C
:1007F00093E00E94B20265E971E086E893E00E940E
:10080000B2026AE971E08CE893E00E94B2026CE9FE
:1008100071E082E993E00E94B2026EE971E088E93A
:1008200093E00E94B20266EA71E08EE993E00E94D2
:10083000B2028FE08A878CE08B878BE08C878AE01E
:100840008D8760E08FE00E94810260E08B850E94CE
:10085000810260E08C850E94810260E08D850E94AB
:100860008102E5EAF2E014821382108707838EE0AA
:10087000828380E094E09683858380E090E0A0E02E
:10088000B0E481879287A387B48760E08EE00E94FE
:100890008102C3E9D2E086E0888385E0898384E031
:1008A0008A8389E08B8361E086E00E94810261E0B7
:1008B00089810E94810261E08A810E94810261E057
:1008C0008B810E948102E3E6F2E0108211821282A3
:1008D0001382148215821682178210861186128660
:1008E00013861486158616861786108A118A128A30
:1008F000138A148A158A168A178A108E118E128E00
:10090000138E84E690E0958F848F8DEC9CECACEC9C
:10091000BDE3868F978FA0A3B1A312A213A215A245
:1009200014A28FEF90E097A386A310A611A612A69B
:1009300013A614A615A616A617A6DF91CF911F9190
:100940000F910895CF93DF9300D000D000D01F9275
:10095000CDB7DEB7789484B5826084BD84B58160FC
:1009600084BD85B5826085BD85B5816085BD80917A
:100970006E00816080936E001092810080918100F2
:1009800082608093810080918100816080938100EA
:10099000809180008160809380008091B1008460AC
:1009A0008093B1008091B00081608093B00080910D
:1009B0007A00846080937A0080917A0082608093CC
:1009C0007A0080917A00816080937A0080917A0029
:1009D000806880937A001092C100E091D601F09176
:1009E000D70182E08083E091D201F091D30110829F
:1009F000E091D401F091D50183E180831092DE0172
:100A0000E091DA01F091DB0186E08083E091D8018A
:100A1000F091D901808180618083E091D801F091CB
:100A2000D901808188608083E091D801F091D9015B
:100A3000808180688083E091D801F091D901808124
:100A40008F7D808310927A0010927B0080917C00D1
:100A5000806480937C0080917C008093020180916F
:100A60007C0080937C0080917A00856080937A007E
:100A700080917A008D7F80937A0080917A008062E5
:100A800080937A0080917A00886080937A008091C8
:100A90007A00806880937A0080917A0080648093E5
:100AA0007A0090E080E00E94170C898381E090E05A
:100AB0000E94170C8A8389819A8181509048909373
:100AC000A9028093A8021092B90182EA8093800063
:100AD00089E18093810081E0809387008FEF80938C
:100AE00086008FE692E1A3E8BAE3809381029093B7
:100AF0008202A0938302B093840281E090E09093FD
:100B0000800280937F0204E1202E312C83B19091EA
:100B1000B702992309F49CC48091BB02882309F48D
:100B200006C46091C2027091C3020EC0B701FF0CEF
:100B3000880B990B0E94FA0A9B01AC01C501B40114
:100B40000E94200D0E94920D072E000C880B990B1D
:100B50000E94FA0A609363027093640280936502B4
:100B600090936602E090AC02F090AD024090AA0231
:100B70005090AB02052C000C66087708D12CC12CD4
:100B8000812C912C5401CE14DF0404F5A091A50210
:100B9000B091A60227E631E00E94A60CA3019201C3
:100BA0000E941F0CCA01B9016F5F7F4F8F4F9F4F8B
:100BB0000E94FA0A9B01AC01C501B4010E94B40C69
:100BC0004B015C018FEFC81AD80ADDCFB701FF0CCB
:100BD000880B990B0E94FA0A9B01AC01C501B40174
:100BE0000E94200D6B017C016091A8027091A90206
:100BF000072E000C880B990B0E94FA0A9B01AC018E
:100C0000C701B6010E94B40C0E94920D9B01693687
:100C1000A1E07A070CF4F0C128563140B901330F36
:100C2000880B990B0E94FA0A6B017C01C092670243
:100C3000D0926802E0926902F0926A025E9A809015
:100C4000630290906402A0906502B0906602AC01CD
:100C50009B01C501B4010E94C80D18160CF0E6C135
:100C600080E090E0A0E0BFE3809373029093740271
:100C7000A0937502B0937602A7019601C501B40155
:100C80000E94B30C20E030E040E050E40E94F30A00
:100C900018160CF4B8C180E090E0A0E8BFE38093A0
:100CA0006F0290937002A0937102B093720230921F
:100CB000880220928702ACE2B1E0B0938A02A0934E
:100CC00089025D9A5C98109286028FB7F8944091E1
:100CD000C2015091C3016091C4017091C5018FBFE1
:100CE00080918F0290919002A0919102B091920216
:100CF000481B590B6A0B7B0B80917F0290918002FD
:100D0000B0E0A0E0481759076A077B0708F436C12E
:100D10002FB7F8948091C2019091C301A091C401B2
:100D2000B091C5012FBF80938F0290939002A09342
:100D30009102B09392028090670290906802A09016
:100D40006902B0906A02A5019401609163027091FA
:100D5000640280916502909166020E94B30C6B015F
:100D60007C01A501940160918B0270918C028091AD
:100D70008D0290918E020E94B30C6B837C838D83D5
:100D80009E8380928B0290928C02A0928D02B092F0
:100D90008E0280918602882369F0F7FAF094F7F8C2
:100DA000F0948B819C81AD81BE81B0588B839C83F4
:100DB000AD83BE8310918502412C512C320111115B
:100DC0000EC020916F0230917002409171025091DB
:100DD0007202C701B6010E94590B2B013C018090A1
:100DE000810290908202A0908302B09084022091B0
:100DF0007702309178024091790250917A026B81AA
:100E00007C818D819E810E94590BA50194010E94D5
:100E1000200DA30192010E94B40C2B013C012091F2
:100E20007302309174024091750250917602C701AD
:100E3000B6010E94590BA50194010E94590B209103
:100E40007B0230917C0240917D0250917E020E9493
:100E5000B40C6B017C01C0927B02D0927C02E092C8
:100E60007D02F0927E021123D1F020916F02309129
:100E7000700240917102509172026B817C818D8170
:100E80009E810E94590BA70196010E94B40C6093A9
:100E90007B0270937C0280937D0290937E02C090CF
:100EA0007B02D0907C02E0907D02F0907E02609107
:100EB000870270918802072E000C880B990B0E9404
:100EC000FA0A4B015C019B01AC01B601C7010E940B
:100ED000F30A87FD15C16091890270918A02072E7D
:100EE000000C880B990B0E94FA0A6B837F838C019C
:100EF0009B01AC01B601C7010E94C80D18161CF475
:100F0000CB80DF807801C601D70180937B0290936C
:100F10007C02A0937D02B0937E029601A701C301DB
:100F2000B2010E94B40C7B018C019B01AC01B401A5
:100F3000C5010E94C80D18160CF4E5C06091890225
:100F400070918A02072E000C880B990B0E94FA0AF6
:100F50005B016C019B01AC01B701C8010E94C80D87
:100F6000181614F475018601C701D80180936B022D
:100F700090936C02A0936D02B0936E0260916B022D
:100F800070916C0280916D0290916E020E94990D99
:100F90009B0180919602F894863009F435C108F0DF
:100FA000B5C0833009F4DDC0853009F408C17894F8
:100FB00083B19091B7022091B902222351F083FBB3
:100FC000882780F9911102C08091B6028111109298
:100FD000B90283B12091BA02222309F497CD82FB92
:100FE000882780F9911102C08091B802882309F402
:100FF0008DCD1092BA028ACD161617060CF40ECEBD
:1010000028593E4F0BCE86E696E6A6EEBFE38093C8
:101010006F0290937002A0937102B09372023092AB
:10102000880220928702AFEFB1E047CEA701960178
:10103000C501B4010E94F30A87FF49C080E090E037
:10104000A0E0BFE38093730290937402A0937502B3
:10105000B0937602A5019401C701B6010E94B30CBA
:1010600020E030E040E050E40E94F30A1816E4F07B
:1010700080E090E0A0E8BFE380936F02909370025D
:10108000A0937102B093720230928802209287027C
:10109000ACE2B1E0B0938A02A09389025D985C9AB9
:1010A000B1E0B093860211CE86E696E6A6EEBFE3E7
:1010B00080936F0290937002A0937102B0937202BA
:1010C0003092880220928702AFEFB1E0E3CF109216
:1010D0006F021092700210927102109272021092BE
:1010E000730210927402109275021092760210929E
:1010F00088021092870210928A0210928902E5CD2E
:101100006401750100CF740185012ECF8A3009F486
:10111000B2C08B3009F4EDC0893009F048CF80911E
:10112000B901882399F09091860080918700A82FBB
:10113000B0E0BA2FAA27A90FB11D9B010E94A60CEF
:101140002FEF30E040E050E00E941F0C21153105E8
:1011500009F074C0809180008F7780938000299877
:1011600026CF8091BC01882361F02091B30030E04C
:10117000DB010E94970C2FEF30E040E050E00E942E
:101180001F0C2115310539F48091B0008F7D8093BB
:10119000B0005B980CCF8091B3008217130639F42E
:1011A0008091B0008F7D8093B0005B9A00CF8091DA
:1011B000B00080628093B0002093B400F8CE80919C
:1011C000BB01882359F027B530E0DB010E94970C62
:1011D0002FEF30E040E050E00E941F0C2115310558
:1011E00029F484B58F7D84BD5D98E1CE87B58217E3
:1011F000130629F484B58F7D84BD5D9AD8CE84B55D
:10120000806284BD28BDD3CE8091BA01882399F035
:1012100084B52115310521F48F7D84BD5E98C7CE3C
:101220002F3F310521F48F7D84BD5E9AC0CE806250
:1012300084BD67BDBCCE84B58068FACF409186007E
:101240008091870090E0982F8827840F911D2817A0
:10125000390739F4809180008F7780938000299A34
:10126000A6CE8091800080688093800030938900B2
:10127000209388009CCE8091B901882399F09091A9
:10128000860080918700A82FB0E0BA2FAA27A90F67
:10129000B11D9B010E94A60C2FEF30E040E050E012
:1012A0000E941F0C2115310539F4809180008F7D3B
:1012B000809380002A987BCE4091860080918700A1
:1012C00090E0982F8827840F911D2817390739F44B
:1012D000809180008F7D809380002A9A68CE8091D3
:1012E000800080628093800030938B0020938A007E
:1012F0005ECE8091B801882391F08091B0002115D5
:10130000310529F48F778093B0002B9850CE2F3F72
:10131000310539F48F778093B0002B9A48CE8091B5
:10132000B00080688093B0006093B30040CE5E98B8
:1013300083B183FB882780F991118091B602909147
:10134000B9028823D1F191113BC091E09093B90289
:10135000E090AC02F090AD024090AA025090AB0237
:10136000052C000C66087708D12CC12C812C912CFF
:101370005401CE14DF040CF044C0A091A502B0913A
:10138000A60227E631E00E94A60CA30192010E946A
:101390001F0CCA01B9016F5F7F4F8F4F9F4F0E9493
:1013A000FA0A9B01AC01C501B4010E94B40C4B01C7
:1013B0005C01AFEFCA1ADA0ADCCF91111092B902C0
:1013C00083B19091B70282FB882780F991118091B7
:1013D000B8029091BA028823A9F19111E9CDB1E048
:1013E000B093BA0245E050E06EEA71E086EC91E01D
:1013F0000E947E000E948B011092A9021092A80206
:10140000D7CDB701FF0C880B990B0E94FA0A9B01FC
:10141000AC01C501B4010E94200D0E94920D84EB25
:1014200090E0861B970B9093A9028093A80245E059
:1014300050E06EEA71E086EC91E00E947E000E942E
:101440008B01BECF992309F4B3CD1092BA02B0CD6F
:1014500084FF6DCFE090C402F090C5024090C002BE
:101460005090C102052C000C66087708D12CC12CC5
:10147000812C912C5401CE14DF040CF057CBA09199
:10148000B202B091B30227E631E00E94A60CA3019C
:1014900092010E941F0CCA01B9016F5F7F4F8F4FED
:1014A0009F4F0E94FA0A9B01AC01C501B4010E9442
:1014B000B40C4B015C014FEFC41AD40ADCCF8EE9A7
:1014C00093E00E94930188E993E00E94930182E9EE
:1014D00093E00E9493018CE893E00E94930186E8D8
:1014E00093E00E94930180E893E00E9493018AE7D1
:1014F00093E00E94930184E793E00E9493018EE6BB
:1015000093E00E94930188E693E00E94930182E6B3
:1015100093E00E9493018CE593E00E94930186E59D
:1015200093E00E94930180E593E00E9493018AE496
:1015300093E00E94930184E493E00E9493018EE380
:1015400093E00E94930188E393E00E94930182E379
:1015500093E00E9493018CE293E00E94930186E263
:1015600093E00E94930180E293E00E9493018AE15C
:1015700093E00E94930184E193E00E9493018EE046
:1015800093E00E94930188E093E00E94930182E03F
:1015900093E00E9493018CEF92E00E94930186EF0A
:1015A00092E00E94930180EF92E00E9493018AEE04
:1015B00092E00E94930184EE92E00E9493018EEDEE
:1015C00092E00E94930188ED92E00E94930182EDE7
:1015D00092E00E9493018CEC92E00E94930186ECD1
:1015E00092E00C9493010E94350B08F481E0089579
:1015F000E89409C097FB3EF49095809570956195AD
:101600007F4F8F4F9F4F9923A9F0F92F96E9BB2762
:101610009395F695879577956795B795F111F8CFDE
:10162000FAF4BB0F11F460FF1BC06F5F7F4F8F4F49
:101630009F4F16C0882311F096E911C0772321F03F
:101640009EE8872F762F05C0662371F096E8862FD7
:1016500070E060E02AF09A95660F771F881FDAF72E
:10166000880F9695879597F90895990F0008550F5B
:10167000AA0BE0E8FEEF16161706E807F907C0F018
:1016800012161306E407F50798F0621B730B840B20
:10169000950B39F40A2661F0232B242B252B21F4FA
:1016A00008950A2609F4A140A6958FEF811D811D9A
:1016B00008950E946C0B0C94DD0B0E94CF0B38F048
:1016C0000E94D60B20F0952311F00C94C60B0C94BD
:1016D000CC0B11240C94110C0E94EE0B70F3959F0F
:1016E000C1F3950F50E0551F629FF001729FBB2719
:1016F000F00DB11D639FAA27F00DB11DAA1F649FB5
:101700006627B00DA11D661F829F2227B00DA11D67
:10171000621F739FB00DA11D621F839FA00D611DED
:10172000221F749F3327A00D611D231F849F600D0E
:10173000211D822F762F6A2F11249F5750409AF037
:10174000F1F088234AF0EE0FFF1FBB1F661F771FC3
:10175000881F91505040A9F79E3F510580F00C948E
:10176000C60B0C94110C5F3FE4F3983ED4F38695BE
:1017700077956795B795F795E7959F5FC1F7FE2B2E
:10178000880F911D9695879597F9089597F99F670A
:1017900080E870E060E008959FEF80EC08950024F9
:1017A0000A941616170618060906089500240A94C6
:1017B00012161306140605060895092E0394000C4C
:1017C00011F4882352F0BB0F40F4BF2B11F460FFDB
:1017D00004C06F5F7F4F8F4F9F4F089557FD905804
:1017E000440F551F59F05F3F71F04795880F97FBE5
:1017F000991F61F09F3F79F087950895121613069F
:101800001406551FF2CF4695F1DF08C016161706CD
:101810001806991FF1CF8695710561050894089502
:10182000E894BB2766277727CB0197F90895F999A4
:10183000FECF92BD81BDF89A992780B50895052EF7
:1018400097FB1EF400940E94360C57FD07D00E94AF
:10185000750C07FC03D04EF40C94360C5095409553
:10186000309521953F4F4F4F5F4F0895909580954C
:10187000709561957F4F8F4F9F4F08952F923F92A4
:101880004F925F926F927F928F929F92AF92BF9290
:10189000CF92DF92EF92FF920F931F93CF93DF933C
:1018A000CDB7DEB7CA1BDB0B0FB6F894DEBF0FBE99
:1018B000CDBF09942A88398848885F846E847D84E6
:1018C0008C849B84AA84B984C884DF80EE80FD80E8
:1018D0000C811B81AA81B981CE0FD11D0FB6F8945E
:1018E000DEBF0FBECDBFED010895A1E21A2EAA1BE7
:1018F000BB1BFD010DC0AA1FBB1FEE1FFF1FA217C0
:10190000B307E407F50720F0A21BB30BE40BF50BBC
:10191000661F771F881F991F1A9469F76095709545
:10192000809590959B01AC01BD01CF010895A29FC8
:10193000B001B39FC001A39F700D811D1124911DA3
:10194000B29F700D811D1124911D08950E94970C66
:10195000B7FF0895821B930B0895EE0FFF1F0590AC
:10196000F491E02D09945058BB27AA270E94CB0C74
:101970000C94DD0B0E94CF0B38F00E94D60B20F0A8
:1019800039F49F3F19F426F40C94CC0B0EF4E09537
:10199000E7FB0C94C60BE92F0E94EE0B58F3BA1725
:1019A000620773078407950720F079F4A6F50C9475
:1019B000100C0EF4E0950B2EBA2FA02D0B01B901DF
:1019C00090010C01CA01A0011124FF27591B99F0B5
:1019D000593F50F4503E68F11A16F040A22F232FC1
:1019E000342F4427585FF3CF469537952795A79511
:1019F000F0405395C9F77EF41F16BA0B620B730BB8
:101A0000840BBAF09150A1F0FF0FBB1F661F771F28
:101A1000881FC2F70EC0BA0F621F731F841F48F4DD
:101A2000879577956795B795F7959E3F08F0B0CF66
:101A30009395880F08F09927EE0F9795879508954D
:101A40000E94340D0C94DD0B0E94D60B58F00E94BE
:101A5000CF0B40F029F45F3F29F00C94C60B5111D5
:101A60000C94110C0C94CC0B0E94EE0B68F3992390
:101A7000B1F3552391F3951B550BBB27AA2762178A
:101A80007307840738F09F5F5F4F220F331F441F97
:101A9000AA1FA9F335D00E2E3AF0E0E832D09150CB
:101AA0005040E695001CCAF72BD0FE2F29D0660FB8
:101AB000771F881FBB1F261737074807AB07B0E8FB
:101AC00009F0BB0B802DBF01FF2793585F4F3AF001
:101AD0009E3F510578F00C94C60B0C94110C5F3F9F
:101AE000E4F3983ED4F3869577956795B795F79587
:101AF0009F5FC9F7880F911D9695879597F908956F
:101B0000E1E0660F771F881FBB1F6217730784070A
:101B1000BA0720F0621B730B840BBA0BEE1F88F719
:101B2000E09508950E94990D6894B1110C94110CE0
:101B300008950E94F60B88F09F5798F0B92F9927C7
:101B4000B751B0F0E1F0660F771F881F991F1AF0A8
:101B5000BA95C9F714C0B13091F00E94100CB1E0F1
:101B600008950C94100C672F782F8827B85F39F0F0
:101B7000B93FCCF3869577956795B395D9F73EF441
:101B800090958095709561957F4F8F4F9F4F0895E9
:101B90000E94350B08F48FEF08950F931F93CF9396
:101BA000DF938230910510F482E090E0E091A6038B
:101BB000F091A70330E020E0B0E0A0E0309799F486
:101BC0002115310509F44AC0281B390B2430310591
:101BD000D8F58A819B816115710589F1FB01938399
:101BE0008283FE0111C04081518102811381481717
:101BF0005907E0F04817590799F4109761F01296C9
:101C00000C93129713961C933296CF01DF91CF91CC
:101C10001F910F9108950093A6031093A703F4CF8B
:101C20002115310551F04217530738F0A901DB01A6
:101C30009A01BD01DF01F801C1CFEF01F9CF909307
:101C4000A7038093A603CDCFFE01E20FF31F81937C
:101C500091932250310939832883D7CF2091A4034F
:101C60003091A503232B41F4209105013091060109
:101C70003093A5032093A403209103013091040124
:101C80002115310541F42DB73EB740910701509120
:101C90000801241B350BE091A403F091A503E21782
:101CA000F307A0F42E1B3F0B2817390778F0AC017F
:101CB0004E5F5F4F2417350748F04E0F5F1F50935C
:101CC000A5034093A403819391939FCFF0E0E0E0BC
:101CD0009CCFCF93DF930097E9F0FC0132971382FA
:101CE0001282A091A603B091A703ED0130E020E09D
:101CF0001097A1F420813181820F931F2091A403BA
:101D00003091A5032817390709F061C0F093A503A6
:101D1000E093A403DF91CF910895EA01CE17DF0786
:101D2000E8F54A815B819E0141155105B1F7E90152
:101D3000FB83EA8349915991C40FD51FEC17FD0726
:101D400061F4808191810296840F951FE901998346
:101D50008883828193819B838A83F0E0E0E01296FE
:101D60008D919C9113970097B9F52D913C91119706
:101D7000CD010296820F931F2091A4033091A503F9
:101D80002817390739F6309751F51092A7031092AA
:101D9000A603B093A503A093A403BCCFD383C283AF
:101DA00040815181840F951FC817D90761F44E5F98
:101DB0005F4F88819981480F591F518340838A81E1
:101DC0009B81938382832115310509F0B0CFF09375
:101DD000A703E093A6039ECFFD01DC01C0CF1382D1
:101DE0001282D7CFB0E0A0E0E8EFFEE00C94400C08
:101DF0008C01009751F4CB010E94CD0D8C01C801DC
:101E0000CDB7DEB7E0E10C945C0CFC01E60FF71FE8
:101E10009C0122503109E217F30708F49DC0D90153
:101E2000CD91DC911197C617D70798F0C530D10531
:101E300030F3CE0104978617970708F3C61BD70B1C
:101E40002297C193D1936D937C93CF010E94690E29
:101E5000D6CF5B01AC1ABD0A4C018C0E9D1EA09121
:101E6000A603B091A703512C412CF12CE12C109723
:101E700031F58091A4039091A5038815990509F087
:101E80005CC04616570608F058C080910301909137
:101E90000401009741F48DB79EB74091070150911E
:101EA0000801841B950BE817F90708F055C0F0935B
:101EB000A503E093A403F90171836083A0CF8D9102
:101EC0009C91119712966C90129713967C90139791
:101ED000A815B90559F56C0142E0C40ED11CCA140D
:101EE000DB0420F1AC014A195B09DA01129615975F
:101EF00080F06282738251834083D9016D937C9319
:101F0000E114F10471F0D7011396FC93EE9312974C
:101F100076CF22968C0F9D1FF90191838083F30168
:101F2000EFCFF093A703E093A60369CF48165906B5
:101F300008F42C017D01D3019ACFCB010E94CD0D75
:101F40007C01009749F0AE01B8010E94AF0FC801B3
:101F50000E94690E870153CF10E000E050CFFB01D3
:101F6000DC0102C001900D9241505040D8F7089515
:101F7000FB01DC0101900D920020E1F7089510E0D3
:101F8000C3E5D0E004C0FE010E94AD0C2196C4352B
:081F9000D107C9F7F894FFCF57
:101F98000E00010000A8038000000000001E017E62
:101FA80000AB006B01DC00BA00CE000D0A004F0048
:101FB8006F004F5054494F4E53006F7074696F6EE5
:101FC8007300534F5552434500736F757263650034
:101FD8004300630043414C49425241544500636108
:101FE8006C69627261746500520072005245534513
:101FF8005400726573657400420062004241434BAD
:10200800006261636B004558495400657869740043
:102018005000700050574D0070776D0055007500E6
:10202800554152540075617274004400640044497B
:102038005341424C450064697361626C65005752B4
:0420480049544500B2
:00000001FF
